:020000040000fa
:080000000002040000000000f2
:020000040000fa
:0400080010030000e1
:020000040000fa
:04000c00d40200001a
:020000040000fa
:04001000da02000010
:020000040000fa
:04001400e002000006
:020000040000fa
:04001800e6020000fc
:020000040000fa
:04001c00ec020000f2
:020000040000fa
:0400200010030000c9
:020000040000fa
:0400240010030000c5
:020000040000fa
:0400280010030000c1
:020000040000fa
:04002c0010030000bd
:020000040000fa
:0400300010030000b9
:020000040000fa
:0400340014030000b1
:020000040000fa
:0400380010030000b1
:020000040000fa
:04003c0010030000ad
:020000040000fa
:0400400010030000a9
:020000040000fa
:04004400780300003d
:020000040000fa
:040048008003000031
:020000040000fa
:04004c00100300009d
:020000040000fa
:040050001003000099
:020000040000fa
:040054004c04000058
:020000040000fa
:040058001003000091
:020000040000fa
:04005c00100300008d
:020000040000fa
:040060001003000089
:020000040000fa
:040064001003000085
:020000040000fa
:040068001003000081
:020000040000fa
:04006c00100300007d
:020000040000fa
:040070001003000079
:020000040000fa
:040074001003000075
:020000040000fa
:04007800a8040000d8
:020000040000fa
:04007c00100300006d
:020000040000fa
:040080001003000069
:020000040000fa
:040084001003000065
:020000040000fa
:040088001003000061
:020000040000fa
:04008c00100300005d
:020000040000fa
:040090001003000059
:020000040000fa
:04009400a2030000c3
:020000040000fa
:040098001004000050
:020000040000fa
:04009c00b8040000a4
:020000040000fa
:0400a00074040000e4
:020000040000fa
:0400a40096040000be
:020000040000fa
:0400a8001003000041
:020000040000fa
:0400ac00100300003d
:020000040000fa
:0400b0001003000039
:020000040000fa
:0400b4001003000035
:020000040000fa
:0400b8001003000031
:020000040000fa
:0400bc00100300002d
:020000040000fa
:0400c0001003000029
:020000040000fa
:0400c4001003000025
:020000040000fa
:0400c8001003000021
:020000040000fa
:0400cc00100300001d
:020000040000fa
:0400d0001003000019
:020000040000fa
:0400d4001003000015
:020000040000fa
:0400d8001003000011
:020000040000fa
:0400dc00100300000d
:020000040000fa
:0400e0001003000009
:020000040000fa
:0400e4001003000005
:020000040000fa
:0400e8001003000001
:020000040000fa
:0400ec0010030000fd
:020000040000fa
:0400f00010030000f9
:020000040000fa
:0400f40010030000f5
:020000040000fa
:0400f80010030000f1
:020000040000fa
:0400fc0010030000ed
:020000040000fa
:0401000010030000e8
:020000040000fa
:0401040010030000e4
:020000040000fa
:0401080010030000e0
:020000040000fa
:04010c0010030000dc
:020000040000fa
:040110001c040000cb
:020000040000fa
:0401140010030000d4
:020000040000fa
:0401180010030000d0
:020000040000fa
:04011c0010030000cc
:020000040000fa
:0401200010030000c8
:020000040000fa
:0401240010030000c4
:020000040000fa
:0401280010030000c0
:020000040000fa
:04012c0010030000bc
:020000040000fa
:0401300010030000b8
:020000040000fa
:0401340010030000b4
:020000040000fa
:0401380010030000b0
:020000040000fa
:04013c0010030000ac
:020000040000fa
:0401400010030000a8
:020000040000fa
:0401440010030000a4
:020000040000fa
:0401480010030000a0
:020000040000fa
:04014c00100300009c
:020000040000fa
:040150001003000098
:020000040000fa
:040154001003000094
:020000040000fa
:040158001003000090
:020000040000fa
:04015c00100300008c
:020000040000fa
:040160001003000088
:020000040000fa
:040164001003000084
:020000040000fa
:0402080010030000df
:020000040000fa
:04020c00f2020000fa
:020000040000fa
:04021000f8020000f0
:020000040000fa
:04021400fe020000e6
:020000040000fa
:0402180004030000db
:020000040000fa
:04021c000a030000d1
:020000040000fa
:0402200010030000c7
:020000040000fa
:0402240010030000c3
:020000040000fa
:0402280010030000bf
:020000040000fa
:04022c0010030000bb
:020000040000fa
:0402300010030000b7
:020000040000fa
:0402340014030000af
:020000040000fa
:0402380010030000af
:020000040000fa
:04023c0010030000ab
:020000040000fa
:0402400010030000a7
:020000040000fa
:04024400780300003b
:020000040000fa
:04024800800300002f
:020000040000fa
:04024c00100300009b
:020000040000fa
:040250001003000097
:020000040000fa
:040254004c04000056
:020000040000fa
:04025800100300008f
:020000040000fa
:04025c00100300008b
:020000040000fa
:040260001003000087
:020000040000fa
:040264001003000083
:020000040000fa
:04026800100300007f
:020000040000fa
:04026c00100300007b
:020000040000fa
:040270001003000077
:020000040000fa
:040274001003000073
:020000040000fa
:04027800a8040000d6
:020000040000fa
:04027c00100300006b
:020000040000fa
:040280001003000067
:020000040000fa
:040284001003000063
:020000040000fa
:04028800100300005f
:020000040000fa
:04028c00100300005b
:020000040000fa
:040290001003000057
:020000040000fa
:04029400a2030000c1
:020000040000fa
:04029800100400004e
:020000040000fa
:04029c00b8040000a2
:020000040000fa
:0402a00074040000e2
:020000040000fa
:0402a40096040000bc
:020000040000fa
:0402a800100300003f
:020000040000fa
:0402ac00100300003b
:020000040000fa
:0402b0001003000037
:020000040000fa
:0402b4001003000033
:020000040000fa
:0402b800100300002f
:020000040000fa
:0402bc00100300002b
:020000040000fa
:0402c0001003000027
:020000040000fa
:0402c4001003000023
:020000040000fa
:0402c800100300001f
:020000040000fa
:0402cc00100300001b
:020000040000fa
:0402d0001003000017
:020000040000fa
:0402d4001003000013
:020000040000fa
:0402d800100300000f
:020000040000fa
:0402dc00100300000b
:020000040000fa
:0402e0001003000007
:020000040000fa
:0402e4001003000003
:020000040000fa
:0402e80010030000ff
:020000040000fa
:0402ec0010030000fb
:020000040000fa
:0402f00010030000f7
:020000040000fa
:0402f40010030000f3
:020000040000fa
:0402f80010030000ef
:020000040000fa
:0402fc0010030000eb
:020000040000fa
:0403000010030000e6
:020000040000fa
:0403040010030000e2
:020000040000fa
:0403080010030000de
:020000040000fa
:04030c0010030000da
:020000040000fa
:040310001c040000c9
:020000040000fa
:0403140010030000d2
:020000040000fa
:0403180010030000ce
:020000040000fa
:04031c0010030000ca
:020000040000fa
:0403200010030000c6
:020000040000fa
:0403240010030000c2
:020000040000fa
:0403280010030000be
:020000040000fa
:04032c0010030000ba
:020000040000fa
:0403300010030000b6
:020000040000fa
:0403340010030000b2
:020000040000fa
:0403380010030000ae
:020000040000fa
:04033c0010030000aa
:020000040000fa
:0403400010030000a6
:020000040000fa
:0403440010030000a2
:020000040000fa
:04034800100300009e
:020000040000fa
:04034c00100300009a
:020000040000fa
:040350001003000096
:020000040000fa
:040354001003000092
:020000040000fa
:04035800100300008e
:020000040000fa
:04035c00100300008a
:020000040000fa
:040360001003000086
:020000040000fa
:040364001003000082
:020000040000fa
:100400000f2e21000e7f24000e0188000000000046
:10041000000020000000e000020032000001200087
:100420002002880014000700a40107000000e0007b
:1004300003003a0040d92a000100200002003700e2
:100440000000200001002000810f70000100320038
:1004500014000700000020000000e000020032004d
:100460000000020000000000eeb6020000000000e4
:100470000040da000000fe004440a900202d2000ca
:100480000000e0000300320000002000a00188000e
:100490004440a800000006008a1f78008b1f7800e7
:1004a0000000060091018800800478000000eb0045
:1004b0001a003700e284440032a0b4009905ba0063
:1004c000e284440032a0b4009906ba00e2844400f9
:1004d00032a0b4000006eb00476fde00fd07b2005b
:1004e000636ce10003003a00ebff07000000eb0043
:1004f0000a003700606ce10004003a00005deb0088
:100500008b05e900fdff3e00040037006168e10053
:10051000010032000086eb000b00070019c7ba008b
:100520001905ba000e04e00003003a000a00e000da
:10053000e0ff3a0000000600fe07b2009e018800be
:100540008a047800f5ff3700395dba008b05e900b1
:100550000c003200295dba008b05e900080032006a
:100560000c00e00003003a00e284440032a0b40032
:10057000f5ff370019ddba008b05e900faff3a00f4
:100580008904e800e184440032a0b40000000600c1
:10059000c03a0400000000004835040000000000dc
:1005a0001a2b0400000000000000fa008020a900bf
:1005b000ffff37000000fa008060a900ffff37004e
:1005c0000000fa008040a900ffff37000000fa0099
:1005d0008080a900ffff37000000fa0080a0a9007a
:1005e000ffff37000000fa008020a900ffff37005e
:1005f0000000fa008060a900ffff37000000fa0049
:100600008040a900ffff37000000fa008080a900a9
:10061000ffff37000000fa0080a0a900ffff3700ad
:100620000000fa00ffff37003600f800809fbe0090
:10063000829fbe00849fbe00869fbe00889fbe0032
:100640000000fa008460a90010002000655907002e
:100650000144070091410700b06f80004f00de00a9
:10066000004078000004e00019003200a06f800014
:10067000b26f80008200780001f0a10065004000a8
:10068000e0804800f2ff2f00f3ff2700800278008f
:100690000102780002007800830078000080620088
:1006a0008100620081047800000478000800be0028
:1006b000a06f88000100780000f0a100b26f8000f8
:1006c000010028008100610001007000b06f880007
:1006d0000080fa004f04be004f03be004f02be0070
:1006e0004f01be004f00be003600f900004006007a
:1006f0000000fa0084e0a9000080fa000040060033
:100700003600f800809fbe00829fbe00849fbe001e
:10071000869fbe000000fa000a21ef008500a900b4
:100720005a44070013e1a8000080fa004f03be00fe
:100730004f02be004f01be004f00be003600f90060
:10074000004006003600f800809fbe00829fbe0079
:10075000849fbe00869fbe000000fa00a06f80004c
:10076000b26f80008200780001f0a100f2692800d9
:1007700013002000820f5000838f580020003600a5
:100780007e590700815907008459070087590700df
:100790008a5907008d59070013c0b300c212200008
:1007a000c130200060c0b300e1470700d2a2a90019
:1007b0009460a90094e0a9009500a9009760a900a1
:1007c0009780a9009b40a9009d60a9009105800029
:1007d000000027000100700090058800910580004e
:1007e00000702000010070009005880005e1a9005c
:1007f00011e1a90013e1a9001fe1a900ffff3700e3
:100800008760a9000080fa004f03be004f02be00bf
:100810004f01be004f00be003600f9000040060048
:100820000000fa001821ef0021e1a9008780a9004b
:100830000080fa0000400600809fbe000000fa0021
:100840008b40a900010f8000008020000080600024
:100850000000e00007003200b06c8000c16c800036
:1008600061005000e0805800b06c8800c16c8800c6
:1008700006003700b06c8000c16c80006100400051
:10088000e0804800b06c8800c16c88000080fa00ed
:100890004f00be00004006003600f800809fbe00fa
:1008a000829fbe00849fbe00869fbe000000fa00ab
:1008b00010118000620060000000e00001003200c2
:1008c0005c4f0700b44b0700e94b07000080fa00bb
:1008d0004f03be004f02be004f01be004f00be00de
:1008e0003600f900004006003600f800809fbe0088
:1008f000829fbe00849fbe00869fbe000000fa005b
:1009000097c0a90087c0a900da48070097c0a800cf
:100910000080fa004f03be004f02be004f01be0030
:100920004f00be003600f90000400600801f78002e
:100930000000fa0087e0a9000080800000f0a0001d
:10094000008088000080fa004f0078000040060018
:10095000801f78000000fa008680a90010c0b30054
:1009600062edb7000080fa004f00780000400600fa
:10097000801f78000000fa0087a0a90010c0b30013
:1009800063edb7000080fa004f00780000400600d9
:100990000a00fa0011002000b1bf9f00c0bf9f00f5
:1009a0006a8057005f2607004fb897000080fa0062
:1009b000000006000a00fa00e20f500034003e007a
:1009c000f0968000e10f500003003200e20f50006b
:1009d00011003a000c003700032220000300e00061
:1009e00001003a000040da002002e2000200350077
:1009f0002822ef0021e2a8002342ab000d003a00bc
:100a00002342a8000b003700032320000300e0006e
:100a100001003a000040da003002e2000200350036
:100a20003822ef0031e2a8003342ab0001003a0067
:100a30003342a800820178000b0037003102fb002e
:100a4000e10f500004003a002322ab00feff3a0001
:100a500024118800030037003322ab00feff3a0068
:100a6000a41188008301e9000300e000f3ff3a00cd
:100a7000e10f500003003a002302ab00feff3200fa
:100a80000b0037003302ab00feff320008003700d6
:100a900033002000b3bf9f00c0bf9f00d1bf9f00a5
:100aa000e2bf9f006a805700202607006fb99700b9
:100ab000020078000080fa00000006000000050037
:100ac0008f1fd1008d0707008f87e9000000e0002d
:100ad00000000600809feb00880707008f87e90071
:100ae0000000e0000000060081037800cb00070052
:100af0000001be006000b8000478a30013003a00b3
:100b00006220e10015003e000d0039008301d10094
:100b10000281d3008180d3008301d1000281d30000
:100b20008180d3008301d1000281d3008180d30072
:100b30000538b000c42add00f300b20083817200e2
:100b400007f0a70003f0a0000000060083ff2700c5
:100b5000020020006110b900f9ff370003ff2700f1
:100b6000f7ff37001400fa00889fbe008a9fbe007e
:100b70008c9fbe000004be000205be006800470056
:100b80000a90be000890be00970707000070a700fb
:100b90000bf0a100304320009e02900080825200a2
:100ba000b0fe2f000028e10011003d00b0fc2f0036
:100bb0000028e100150034001e0990008e08900006
:100bc0007e0090000501b0000201d1008180d300b9
:100bd0000080d3008502e800fbff3a000b00e00034
:100be000bc073b0060001000e0801800b907370028
:100bf000f0ff2f00f1ff27000b00e000b5073b00de
:100c00000100280000002000b20737006000b80093
:100c1000b00737000001be00800007000470a70085
:100c200003f0a1006509b100160032000d00350087
:100c30006828e10006003500f0ff2f00f1ff2700d3
:100c40000300e00013003b00010028000000050045
:100c500000004000818048008502e900fcff3a0066
:100c600008003700f88f420002003c008000eb00d3
:100c7000000005008100d1000080d3008502e8005b
:100c8000fcff3a000300e00002003b00600010009f
:100c9000e0801800000006001400fa00889fbe00e3
:100ca0008a9fbe008c9fbe000004be000205be00ed
:100cb000680047000a90be000890be004a0707007f
:100cc0000070a7000bf0a1000bf8a30020003a0071
:100cd0009e0990000e099000fe0090006e009000aa
:100ce0009e02900034432000848252007907320033
:100cf0000a003c00b4fc2f000428e100140034007a
:100d00008301d1000281d3008180d3000080d30011
:100d10008502e800faff3a006e073700b4002000b1
:100d20000428e10007003c000000400081804800ea
:100d300002014900838149008502e900faff3a0077
:100d4000640737000300280002002000010037007c
:100d50006011b8006000b8005e0737001400fa00a8
:100d6000889fbe008a9fbe008c9fbe000004be000c
:100d70000205be00680047000a90be000890be0051
:100d8000190707000070a7000bf0a1000bf8a300e3
:100d900016003a009e0290003043200080825200ec
:100da000b0fe2f000028e1000d003c00b0fc2f0039
:100db0000028e1000d0034001e0990008e0890000c
:100dc0007e0090000501b0000201d1008180d300b7
:100dd0000080d3008502e800fbff3a003d073700a2
:100de00001002800000020003a0737006000b8002a
:100df000380737004f89de00820178003a07370054
:100e00004f89de0082017800470737006011b80083
:100e1000550737006011b8007e073700c70ade00ab
:100e2000f107b200f50fb20008003200e1cf420036
:100e3000020032000170a00024000500810f700044
:100e4000010032000408050044000500810f700015
:100e500002003a00140005008502e900000040008d
:100e600081c04800fcff3b000170a0002400050089
:100e70001400fa00889fbe008a9fbe008c9fbe00af
:100e80000005be000206be00680047000c90be00d0
:100e90000a90be00d40607006400e1001a00320088
:100ea00016003e006100e1001a0032006e0490005e
:100eb000fe0490000e0b90009e0b90006011b80095
:100ec0009e0590000b38b100d50120008281710091
:100ed000610164008703d1000683d3008984d300b5
:100ee0000884d3008502e900f8ff3a00780707007c
:100ef0000df0a70001f0a000f606370001fc270066
:100f000000002000faff370001f827000000200051
:100f1000f7ff37006000b800f5ff37008c9fbe0078
:100f20008a9fbe00889fbe00ca0107000bf0a20086
:100f3000040037008c9fbe008a9fbe00889fbe00c1
:100f4000c40107000c48e1000b003a000c40e1002e
:100f5000020032008b010700400037008b066d0055
:100f60003e0032000af0a100f3012000f2ff2f0042
:100f70006110b900390037000c40e1003700320041
:100f80000940e100010036007e0107008a856d00fe
:100f9000cf5dde000b0575000006eb008804fd0048
:100fa00089045400010032007d0107000a04e000ba
:100fb00011003a000800e000280032000400400060
:100fc0008580480006014900878149000358a30035
:100fd000180032008301d1000281d3008180d30048
:100fe0000080d3000c86d300010039006106760032
:100ff0000804e800180037000400500085805800fd
:101000000601590087815900060031000af0a2004c
:101010000c06ea0060001800e0801800600119006a
:10102000e081190003003a000004eb000005eb002a
:101030000a0037000348a30007003a000c064600e8
:101040000000480081804800020149008381490076
:101050000804e900f7ff3700af013700c901370086
:101060008c9fbe008a9fbe00889fbe00790107004a
:101070000b056d000940e1000a003a000800e0009d
:10108000020032000c40e10006003a000af0a10024
:101090000c047800f3012000f2ff2f006110b9006a
:1010a0009d0037000c40e1009b0032000800e0008a
:1010b000990032000c48e10002003a000004eb0005
:1010c000030037000900e00004003a000c04780037
:1010d0006000b8006011b8008f0037000348a3001b
:1010e00006003a00000040008180480002014900eb
:1010f000838149000804e900f8ff37000748a3008e
:1011000006003a000402420085824a0006034b00b2
:1011100087834b008904e900f8ff3700fd3f20007a
:101120008d845400090454008a1f7800881f7800b9
:1011300000047800810478000205780083057800b7
:101140006000b8006011b8000d04200005003700f1
:101150000804440089844c000a054d008b854d002d
:10116000080031000404540085845c0006055d001d
:1011700087855d008381d2008d06d300f4ff3b009c
:10118000070037000404440085844c0006054d0028
:1011900087854d008381d2008d06d300ecff3b0094
:1011a0000804440089844c000a054d008b854d00dd
:1011b000080031000404540085845c0006055d00cd
:1011c00087855d000281d2008d06d300f4ff3b00cd
:1011d000070037000404440085844c0006054d00d8
:1011e00087854d000281d2008d06d300ecff3b00c5
:1011f0000804440089844c000a054d008b854d008d
:10120000080031000404540085845c0006055d007c
:1012100087855d008180d2008d06d300f4ff3b00fe
:10122000070037000404440085844c0006054d0087
:1012300087854d008180d2008d06d300ecff3b00f6
:101240000804440089844c000a054d008b854d003c
:10125000080031000404540085845c0006055d002c
:1012600087855d000080d2008d06d300f4ff3b002f
:10127000070037000404440085844c0006054d0037
:1012800087854d000080d2008d06d300ecff3b0027
:101290000b00e00004003d000404440085844c0081
:1012a00006054d0087854d000006eb008301d10047
:1012b0000281d3008180d3000080d3000c86d3004c
:1012c0008301d1000281d3008180d3000080d3004c
:1012d0000c86d300890474008b0575008b84740020
:1012e00001003200610676004f0478004f05780057
:1012f0000348a30007003a000c064600000048001f
:101300008180480002014900838149000804e90006
:10131000f7ff3700000137001a0137008c9fbe002d
:101320008a9fbe00889fbe00ca0007000b056d00a3
:101330008a0578000c40e10008003a000900e0004e
:1013400082003a000af0a1000c047800f3012000aa
:10135000f2ff2f006110b9007c0037000c48e1005b
:1013600004003a00870007000900e00077003a0017
:10137000f4ff37000800e000740032000900e000cc
:1013800002003a007f00070070003700ed3f2000a8
:101390008d845400090444008a1f7800881f780057
:1013a000871f7800861f7800851f7800841f7800cb
:1013b000cb19dd00c515de008b8571004b11dd00fa
:1013c000450dde000a057100cb08dd00c504de0016
:1013d000898470004b04dd000440b8000546b80065
:1013e0008c80400060814e00044eb8008c8040002c
:1013f0000d0149008001eb000318ad000456b80050
:101400000c0141008d8149000002eb000420ad0079
:101410000646b8000c0141008d81490060024a0077
:10142000054eb8000c0141008d81490060024a0060
:101430000556b8008c8141000d024a008002eb0085
:101440000528ad000746b8008c8141000d024a0016
:10145000e0824a00064eb8008c8141000d024a002d
:10146000e0824a004f0678000c5eb8008c81410093
:101470000d024a00e0824a000656b8000c02420003
:101480008d824a000003eb000630ad00074eb80025
:101490000c0242008d824a0060034b004f06780028
:1014a0000c5eb8000c0242008d824a0060034b00c3
:1014b0000756b8008c8242000d034b008003eb00fe
:1014c0000738ad004f0678000c5eb8008c824200f1
:1014d0000d034b00e0834b004f0678000c5eb80014
:1014e0000c0343008d834b004f0478004f057800b8
:1014f0000748a3000a003a0000004000818048002d
:10150000020149008381490004024a0085824a00a1
:1015100006034b0087834b000804e900f4ff370003
:101520000306780080807000828070000100320025
:101530006106760087017800060178008500780052
:101540000400780088047800780037008d003700a8
:101550008c06460002003a000000a60000000600cb
:1015600060004800e080480060014900e0814900d7
:101570000350a600000006008301d1000804e80023
:10158000000006000002fd008102fd000203fd00d4
:101590008303fd008804fd008a05fd0000000600ad
:1015a0007048e1001a0039007d0320000d48e10079
:1015b0000a00390081057000830671008c85750072
:1015c0008d8575000006eb000cd8e70061067600fb
:1015d0006000b8006011b800000006007048e1002b
:1015e0000b0039008c0578000006780001007800b7
:1015f00082007800030178008001eb0003d8e70047
:1016000061067600f0845400f4ff3a000000060002
:101610006160e1000c48ad00f08514008b06dd0030
:101620000966de000d0676008b0edd000900de0087
:101630000d0070008b16dd008908de008d807000c3
:101640008b1edd000911de000d0171008919de001d
:10165000000006000d002800fc7f20000d856100c1
:10166000441cde00ef8161000c04640001003200c4
:101670000340a0008d856300c43cde00ef8363005f
:101680008c846400010032000740a0000c40e1009f
:1016900006003a00ef866100828676008186760039
:1016a0008086760001003200180037000c48e10007
:1016b00007003a00ef86630086867600858676000e
:1016c0008486760002003200aeff07000f0037006c
:1016d0000348a30005003a00810670008286760068
:1016e00083867600010032000804e8000748a30062
:1016f00005003a00850672008686760087867600a9
:10170000010032008904e80000000600cf047800e0
:10171000cf0578001b0037000002780081027800b6
:101720000203780083037800880478000cf0a70097
:1017300087ff0700fd7f20000d40e1000400350019
:101740000d0478006000b8006011b8000d0037008b
:101750000800e0000b003c000400780085007800e1
:101760000601780087017800e18414008cff0700ef
:101770000cf0a70076ff07000004eb000340a70071
:101780000804e8004444dd006fc56100880175006d
:101790004f04be004f05be004f06be00000006000d
:1017a00007f82700078361000638e10004003a00cb
:1017b000f7072000878361008703710001003a006a
:1017c00003f0a200889fbe008a9fbe008c9fbe00cf
:1017d000470ade000480a100c71ade000580a100d0
:1017e000070028000785600087856100f70f20004b
:1017f0000720e1009e0032000728e1009c00320033
:10180000010678000400e000b4003200f707200071
:10181000878060000170a0000500e000c000320079
:10182000f7072000878161000370a00005065200c1
:101830000f003a000b50e1000b0032000308e100fa
:1018400002003a000200e1007e0032000204500073
:1018500083845800040031000001fd008101fd0077
:101860008402fd008a05fd006044b80021003700b5
:101870000520e10005003d000001fd008101fd00a3
:101880008402fd008a05fd00050652007a60e10031
:10189000050035000170a1004722dd008480700042
:1018a0008a807000630037006044b800ef02660071
:1018b00007ff2f00070666000500e0000600340061
:1018c000f08312008714dd000511de00071bdd0028
:1018d000060171008519de007060e1000500350029
:1018e0000904780082047800030178008001eb008d
:1018f000700656000b50e10003003a000200400061
:10190000838048000400370060041400e0841c0059
:1019100002005800838058000188a30006003200ae
:101920008100d1000080d3008984d3000884d300d3
:101930000402e800270037000178a30025003a00e0
:101940000100e000030032008186cf006986560066
:101950000a0037008c0020000000e00004003a007c
:1019600009007800880478000004eb00700252003f
:101970008086cf000d0646000c06e9007060e1008d
:10198000060035008000780009007800880478009f
:101990000004eb0070065600700252000c00e000dc
:1019a0000c0034008c08dd00f00316000703de0095
:1019b000868070000c00dd00074bde000600700022
:1019c0008c4cdd000743de00868474000c44dd008f
:1019d0000c0252006120e10020003500610160002e
:1019e0000700280087816400f7ff270087836400d1
:1019f000070374000300e000060032008203730056
:101a0000040032000000e800e08048000188a300e4
:101a10000e003a00f70f20000720e1004a003d00c9
:101a20000170a1004722dd00810072008a807000f1
:101a30000000be004f06be004f05be004f04be00b2
:101a4000000006006000b800faff37008100d100f6
:101a50000080d3000402e800eeff370004017800a4
:101a600089017400a10107008a807000f1ff37002e
:101a7000f7010700070278000001fd008101fd0069
:101a8000f301070087027800850372000778a3003e
:101a9000040032000001fd008101fd000602070084
:101aa000e4ff3700850362000768a30008003200e6
:101ab0000b50e10003003200f0ff2f00f1ff270080
:101ac000dcff37000001fd008101fd00d9ff370078
:101ad0000468a300d7ff3200faff3700f8ff2700a1
:101ae000888360000b003a000000e00009003a0023
:101af0008303640082837300020032000200be0090
:101b0000ccff37000b50e100ceff3a000200be00d0
:101b1000c8ff370014002000810064003eff37003a
:101b2000f8ff27008883610004003a000200e0000b
:101b300002003a008c007800beff3700150020003c
:101b40008301640039ff370001f8270000002000fe
:101b500081007500b7ff3700889fbe008a9fbe00d6
:101b60008c9fbe001b0020000202be00058668009c
:101b700006002800060666004709de00f20fb200e4
:101b8000820032000243e80080003200c729de00f4
:101b9000f30fb2007d0032000343e8007b00320007
:101ba000f107b2000170a000f507b2000570a000b7
:101bb000c708dd004903de00868070004700dd00b5
:101bc000c72add004923de00868272004722dd003d
:101bd00003055100040350008583580003003100c1
:101be00000004000818048000a05e9008c1f780051
:101bf0008a9fbe0004005000858058000402420005
:101c000085824a0000004000818048000005eb000a
:101c10000004be006033b8000406be000d48e100b9
:101c200056003100110009004dccd8000c01b8005d
:101c30000d02b8008481410060824a008283530013
:101c400003045c0084845c0060055d000a00e00021
:101c500025003a00800578000d40e1004900310080
:101c60008800780007007800110009004d88d8002e
:101c70000c01b8000d02b8008481410060824a0066
:101c80006003110083835b0004045c00e0845c005b
:101c90000900e00021003a004f01be000300e0000f
:101ca0002b003200e3016000070673008c81710095
:101cb00001003200640070004200de004e5edd0074
:101cc0000c007000c258de0001e0a0008301070094
:101cd000cf017800818071004f06be004f05be0025
:101ce0004f04be00000006008c8343000d044c002e
:101cf000e0844c0060054d000000e9000a00e000af
:101d0000d4ff32008c8343000d044c00e0844c006f
:101d100060054d000000e900ceff37000c034300d2
:101d20008d834b0060044c00e0844c000000e9000f
:101d30000900e000d8ff32000c0343008d834b0004
:101d400060044c00e0844c000000e900d2ff370042
:101d50004200de004e5edd000c007000c258de0066
:101d600001e0a000cf0178000300e000daff3200bc
:101d700060001000e0801800d7ff3700f0ff2f0050
:101d8000aaff3700f0ff2f00b9ff37000404be00a0
:101d90002f010700870678000004fd008104fd0084
:101da0002b010700078366000678a30003003200ba
:101db0000960a7000800be002c0037000d78a300c2
:101dc000020032000800be00280037000778a30098
:101dd00026003a0001f0a10009f0a1000668a30066
:101de00003003200f1ff2700f0ff2f00baff370099
:101df0000d68a300030032000800be008c80700054
:101e0000b5ff37000768a30007003a000648a300a3
:101e100003003200f1ff2700f0ff2f00aeff370074
:101e20000d48a300030032006000b8008c807000f1
:101e3000a9ff37000748a3000400320001f827007b
:101e4000000020008c807000a3ff3700760107009f
:101e50000004fd008104fd00020578007201070006
:101e60000802be008a01780059ff37000160a00017
:101e700012022000c26f880097ff37000100e000c7
:101e8000120032000500e00010003200889fbe0002
:101e90008a9fbe008c9fbe000006eb0001f8a300e5
:101ea0000300320060001000e08018000cf0a00079
:101eb00005f8a3000300320060021200e0821a005d
:101ec0000cf0a2008005eb0041ff37006000b80075
:101ed0000200050003836800070028000703630071
:101ee000470ade000480a100c71ade000580a100b9
:101ef000f70f20000720e100420032000728e10030
:101f000040003200889fbe008a9fbe008c1f780070
:101f1000f107b200f307b2000400e00064003200f1
:101f20000170a0000500e000680032000370a0000e
:101f300085054200eb07b1000204b8000302b800b7
:101f40008484440060854a00020ab8008484440006
:101f50000a854a00030ab80004054500040033005e
:101f60000804d0008984d2000a85d2008b05e900dc
:101f70006158e1003d0035000210200009016100b8
:101f80000308200089816100f7072000878364002f
:101f900008867300c84cde00c853dd0087847400d7
:101fa0004855de000300e0000600320082037600a0
:101fb000040032008904e80060054d000a88a3008f
:101fc0000c003a00f70f20000758e10044003d00e4
:101fd0000a70a100c75ddd000a8575008a007300e4
:101fe000090078004f0678004f05be004f04be0080
:101ff000000006000a05d1008984d3008b05e800a3
:10200000f0ff3700881f7800060478009000070072
:10201000070278000001fd008101fd008c0007002f
:1020200087027800850372000778a300050032005c
:102030000001fd008101fd009f0007004f047800b2
:1020400000000600850372000748a3000300320069
:10205000f0ff2f00f1ff2700f8ff370000002000fd
:1020600001f8270088807000f4ff370088017800ad
:102070004848dd00808171004848de00c850dd001e
:1020800001007000c850de00060478000b017800e3
:102090001600070088807000d2ff37000500e000be
:1020a00005003200170020003a0007009dff3700ae
:1020b00081037000f9ff3a00860078004f0678002f
:1020c0004f05be004f04be000000050083037100f1
:1020d000f9ff3200270020002e00070094ff370090
:1020e00001f8270086807000f4ff37000100e0004f
:1020f00026003200610111007810e10023003c004d
:102100006022b8007010e100040035008002780001
:10211000010078008000eb00700151000200e00037
:102120000900340070031100062add00822ade0057
:102130008603dd00878272000200de00860bdd0070
:10214000070070008208de0084817100f4ff270020
:10215000048262008481710004002800848262008d
:102160006102600005f0a600000006000482710014
:10217000070032000000e800e08048000000060090
:102180000002be006000b800efff37006000b8003a
:1021900000000600889fbe000004eb006138e100eb
:1021a00016003a000100e00008003a00c800de0016
:1021b0004800dd00880020000100e00003003a0034
:1021c000c800de004800dd00680444008184cf00c0
:1021d000e9845400060034008908dd00f08314000f
:1021e0008703de00878070000900dd0009044400d9
:1021f000610214004f04be00000006000300e0006e
:1022000008003a00c811de004811dd0088002000f7
:102210000300e00003003a00c811de004811dd00b1
:10222000680444008384cf00e9845400060034002d
:102230008919dd00f08314008713de0087817100a7
:102240000911dd0009044400e1021400e9ff370030
:102250002700200001f0a70017002000470bde0038
:10226000f60fb200040032000643e8000a00320014
:102270004702b3000000060001037800f607b20031
:102280000603700002003a000703b30000000600d6
:102290008702b3000000060001037800f607b200d1
:1022a00006037000020032000770a0000000060064
:1022b0000760a000000006000478a30004003200bc
:1022c0000578a300030032000168a30001003a0072
:1022d0000200be000160a000000006008101700045
:1022e000270032008002eb0001f8a3000300320057
:1022f00060001000e080180015002000f4072000a6
:102300000202420020003400f7032000870360002f
:1023100006042000000363000208200000016100a1
:102320004700de00c909dd0000807100c708de003b
:102330000600e0000800320087037100060032004a
:102340001000b0000180b0000188a300020032003c
:10235000c108de000402e800f107b200f30f20001c
:102360000320e10003003d004722dd0081007200f0
:102370002900370001f827000000eb002600370095
:102380006000b80000000600680212007f20e10033
:10239000020034006000b8001f0037006011b80070
:1023a0007020e10004003500800178000100780011
:1023b0008000eb00700252000400e00009003400cd
:1023c000f00312000719dd008419de000703dd00a9
:1023d000868171000400de00070bdd00060070003e
:1023e0008408de00f7ff2700838363008703710002
:1023f0000600280003036300070032000700e00026
:1024000003003a00610160000281730002003200a3
:102410001000b0000180b0000500a600000006001a
:1024200001f0a000000006004f0ade004709de00b0
:10243000f107b200f20fb2000b003200f207b10058
:102440000170a000c708dd00c901de0083807000b4
:102450004700dd000400a600000006006000100038
:10246000e080180000000600810f700001003a00b3
:10247000000006008182cf000500e00010003e0051
:102480008082cf00ee8242007028e1000400390013
:1024900007003e00800078000000eb000e003700cf
:1024a000708312008600de000500dd000a003700a0
:1024b000708352008600dd000000eb00060037004c
:1024c000e28252008508dd00708312000603de0000
:1024d000868070000500dd007507b0000501ea0088
:1024e0000400a6000000060060001000e080180054
:1024f00000000600889fbe008a9fbe003004420094
:10250000b0844a0030054b0090854b006000b1005c
:102510000898be000a90be000440e10005c8e10032
:1025200006d0e10007d8e100020031006800400059
:102530001008e8004f05be004f04be000000060072
:10254000889fbe008a9fbe003004be002005be00ea
:102550000418540005985c0006185d0007985d009b
:10256000110020000440e10005c8e10006d0e100b0
:1025700007d8e100010039008000eb00108810004e
:102580004f05be004f04be00000006001200fa0016
:10259000889fbe008a9fbe008c9fbe00e0b79f0050
:1025a000f1b79f0082bf9f0093bf9f000605be004a
:1025b0000404be000000eb00d0b79f00c0b79f002e
:1025c000b0b79f00a0b79f0090b79f0000067800ab
:1025d0005fb19700cfb09700820141003fb09700f4
:1025e0000200e00004003d00370007007e80570035
:1025f000c0ff070003003700330007007e8057004c
:10260000cfff0700dfb697000d00e0000c0035009b
:102610006fb29700ffb297000fbb97009fbb970068
:1026200010002000010020006011b80000027200bc
:102630008182720002037300838373001b00070012
:102640000c06e80001042000810f5600e0ff3a006c
:102650000d00e00004003d000802be000a03be00b9
:102660007e805700a3ff07005fa897000000e000ee
:1026700005003a001fb29700afb297003fb3970032
:10268000cfb39700090007006fb09700ffb0970025
:102690000fb997009fb997004f06be004f05be00c7
:1026a0004f04be000080fa00000006000100070091
:1026b00000000600a4b79f00b5b79f00c6b79f00f3
:1026c000d7b79f00000006004f09de00828171002d
:1026d000b3b79f004f01de00818040008280700010
:1026e000a1b79f008fb097004f09de0000004000a7
:1026f0000200700090b79f007fa897004f01de0096
:10270000818040008280700081b79f000d0007002b
:102710004f3ade000000400004007000f0af9f0060
:10272000080007000402420085824a0006034b00ad
:1027300087834b00dfff07000802be000a03be00cc
:10274000000006002fb29700bfb297004fb397006a
:10275000dfb3970000000600881f780018002000f3
:10276000881f780089ff07008f87e9004f047800f1
:1027700000000600801feb0084ff07008f87e90040
:1027800000000600889fbe008a9fbe00e00f500038
:10279000e08f5800e00f5900e08f59000c003d0019
:1027a0006044b8006055b8000000540081805c00af
:1027b00002015d0083815d00180020001500070004
:1027c00008003d00180007000004eb00050037007a
:1027d0000004eb000f00070002003d00120007009c
:1027e00018002000dcff07000800e00006003200af
:1027f0006022b8006033b8000000520081805a00a7
:1028000002015b0083815b004f05be004f04be00e8
:1028100000000600e00f5200e08f5a00e00f5b005e
:10282000e08f5b00000006006044b8006055b8000f
:102830000402540085825c0006035d0087835d000e
:1028400000000600889fbe008a9fbe008c1f780093
:10285000e00f5000e08f5800e00f5900e08f590062
:102860000d003d006044b8006055b8000000540001
:1028700081805c0002015d0083815d001c002000fe
:102880000820e10009a8e1000ab0e1000bb8e1006e
:102890000d003d00080037000006eb00e00f52007d
:1028a000e08f5a00e00f5b00e08f5b0006003d0008
:1028b0006044b8006055b8000402540085825c0092
:1028c00006035d0087835d00aaff07000c00e0009f
:1028d000060032006022b8006033b80000005200e9
:1028e00081805a0002015b0083815b004f06780003
:1028f0004f05be004f04be0000000600889fbe00ca
:102900008a9fbe008c9fbe000404be000605be0068
:10291000809fbe00829fbe00210007000406780051
:102920000800be000a01be001d00070084067800f2
:102930004f03be004f02be008d4f76007fb0970060
:1029400013003300f0ff2f008b8f6b0006003b005d
:102950000d0666000c00a7000a00370007f0a6006d
:10296000100020000a003700880f5200898f5a009b
:102970008a0f5b008b8f5b00030039001000200082
:1029800001003e000000200007f0a7000000ea0060
:102990004f06be004f05be004f04be0000000600fb
:1029a00005ff270005826100070032000428e100ce
:1029b00001003200240005000600070001003a0073
:1029c000440005000408050002000700f9ff3a0072
:1029d000140005006f8261008102700085027100a1
:1029e0008502720000000600800078005002be00e0
:1029f0005003be004439de00f700b200f37f200030
:102a000003016100090032000218e10016003a00db
:102a10008501720083017300838173000008200028
:102a200015003a00400020001300370085017200b5
:102a3000830173008381730005003a0004a8be007f
:102a400006a8be00100020000b0037000201e900bc
:102a50000402420085824a0006034b0087834b0034
:102a60000748a300f9ff32000740a00004a8be00f9
:102a700006a8be0020002000800098009200980068
:102a800000000600680447000294be000094be00e7
:102a9000fc0447008694be008494be0009007800c0
:102aa000d1ff070008007800cfff070099007800e9
:102ab000814f70000b003b000800be00d6000700ed
:102ac0004f00b10003003700f3ff2700f2ff2f0093
:102ad0006110b9004f06be004f05be004f04be0096
:102ae0000080fa0000000600881f780003047800c8
:102af0000300e00007003d0060001000e0801800c7
:102b000060011900e081190002003b0001f02d0076
:102b1000030037001400070008f0a70003f0a0002e
:102b20004f04780000000600881f78000304780036
:102b30000300e00007003d0060001000e080180086
:102b400060011900e081190002003b0001f02d0036
:102b5000030037002f00070008f0a70001f0a000d5
:102b60004f04780000000600889fbe0000827000bd
:102b700004027100048271002400320036432000f8
:102b8000c50020008383cf000a0039000541b10051
:102b90008283cf00070039000541b1008183cf0057
:102ba000040039000541b1008083cf0001003900e5
:102bb0000541b10085c353006022b8001200320005
:102bc0000a003b0084827200610260008301d10030
:102bd0000281d3008180d3000080d3000603e80087
:102be0008743e800f7ff3a00070037000000400085
:102bf0008180480002014900838149000603e90001
:102c00008743e900f9ff3a00570007004f04be0070
:102c100000000600889fbe008a9fbe0000827000f0
:102c20000402710004827100260032000004be001c
:102c30000200be006011b8006b0920009502200060
:102c40000182cf000a0039000541b1000082cf00a7
:102c5000070039000541b1000982cf0004003900a6
:102c60000541b1000882cf00010039000541b100e3
:102c700005425200120032000a003b0082817100be
:102c8000610164008100d1000080d3008984d300f9
:102c90000884d3008b05e8000442e800f7ff3a00ff
:102ca000070037000804440089844c0000004800f5
:102cb000818048008b05e9000442e900f9ff3a00f1
:102cc000030007004f05be004f04be0000000600d1
:102cd00081002000618055000b003d000b002000aa
:102ce00061fe2f000100e1001d00340082817100af
:102cf000610164008904d1000884d3000000e80069
:102d0000faff3a00710020006100640003007000c7
:102d1000020060000900320061044400e0844c00bd
:102d20000988a500050032008b05e8006808e1006d
:102d300002003a008904d1000884d300f20f200079
:102d40000258e10005003d00c75ddd00f907b20053
:102d50008980750008007800000006000bf8270045
:102d60008b007800000005001800200057002000ac
:102d7000080453000d003d000600200097fc2f00c2
:102d80000740e1001e00340084827200610260008e
:102d90008301d1000281d3008180d3000080d30061
:102da0000804e800f8ff3a004700200061046000d2
:102db00005047400040464000d003200610040004a
:102dc000e080480060014900e081490003b8a500a7
:102dd000070032000603e8006538e10004003a000d
:102de0008301d1000281d3008180d3000080d30011
:102df000f87f20000830e100030035000803780068
:102e00006000b8006011b8004433dd00f300b20088
:102e10008301730000000600e48240001078a300e4
:102e200007003200640240001178a3003400be00a5
:102e30001401be00040032000330a70000000600a9
:102e40003500be001501be000330a00000000600e2
:102e5000000006002800fa00889fbe008a9fbe007e
:102e60008c9fbe000004be000205be000400be0030
:102e70000601be00a0b79f00b1b79f00c2b79f0078
:102e8000d3b79f00f2ff07000203be000002be009e
:102e9000f0ff2f00f1ff2f00f2ff2f00f3ff2700bc
:102ea0000000620081806200020163008381630090
:102eb000a0af9f00b1af9f00c2af9f00d3af9f00f4
:102ec0006022b8000600200007ff27000400e10090
:102ed0000588e1000690e1000798e1001d003e0032
:102ee0000800be000a01be00d9ff07000203be00b1
:102ef0000002be00a0af9f00b1af9f00c2af9f0015
:102f0000d3af9f00f0ff2f00f1ff2f00f2ff2f0043
:102f1000f3ff27000000620081806200020163006d
:102f200083816300e0b79f00f1b79f0082bf9f00dd
:102f300093bf9f006022b8000600200007ff270013
:102f40000400e1000588e1000690e1000798e10037
:102f5000080036002fb29700bfb297004fb397001a
:102f6000dfb397000800be000a01be00f1f70700ba
:102f7000dd0037002fb09700bfb097004fb197002a
:102f8000dfb197000203be000002be00e0a79f0071
:102f9000f1a79f000000200001012c00020040006a
:102fa000838048000400700085807000e00f5000ae
:102fb000e08f580004003a000800be000a01be007d
:102fc0005e070700c80037000800be000a01be0007
:102fd000a0af9f00b1af9f00c2af9f00d3af9f00d3
:102fe0004fa99700dfa997004e3ede000d0020009c
:102ff0006000b800620066004f1ede000d00200079
:103000000c0670008d8670008300780001f0a1002e
:10301000020078002faa9700bfaa97000401700051
:1030200085817000e00f5100e08f590007003a00e1
:10303000e20f5600e08f5e0040003200e30f5600c2
:10304000e08f5e00aa003a00410037008701780057
:1030500003f0a100b3af9f0006027800a4af9f0069
:103060002fab9700bfab97006fa29700ffa297000e
:103070000401730085817300e00f5100e08f590057
:10308000460032002fab9700bfab97000200200034
:1030900003ff2700820f5300838f5b0031003a004b
:1030a000860f5000878f580018003a00e20f560034
:1030b000e08f5e000b003200e30f5600e08f5e00f1
:1030c0000d003200e10f5600e08f5e007800320004
:1030d00088d1220049442500ba1f22009bfe23000c
:1030e00083003700281d220039f32700ca972d00de
:1030f0002b0024007e003700281d220039f3270012
:10310000ca972d002b002c0079003700e20f5600e3
:10311000e08f5e0009003200e30f5600e08f5e0092
:103120000b0032006044b8006055b800e10f560053
:10313000e08f5e006e003a006200370088d1220006
:1031400049442500ba1f22009b0024006800370074
:1031500088d1220049442500ba1f22009b002c0080
:10316000630037002faa9700bfaa9700060020002f
:10317000074020000401430085814b00800f51006f
:10318000818f5900050039000200200003ff27004d
:10319000820f5000838f580007003a000c08a300ec
:1031a0004c00320088d1220049442500ba1f220079
:1031b0009bff2b004e0037006011b80062016600d3
:1031c000e00f5100e08f59000d0032000400200094
:1031d000054020000002420081824a0084af9f0027
:1031e00095af9f006000b8006011b8002fab97004a
:1031f000bfab9700860f5200878f5a000900390035
:103200002fb29700bfb297004fb39700dfb397007c
:103210000800be000a01be0091f707009a000700ef
:10322000c6060700e10f5600e08f5e000500320081
:103230002d003900e20f5600e08f5e0011003a00c9
:10324000040037000004be000205be000bf0a2001f
:103250002700370074c025004531230066622a002c
:1032600017ca23002df707000002be000203be00ac
:1032700080d1220041442500b21f22009300240087
:103280000900370074c025004531230066622a001a
:1032900017ca230021f7070084d1220045442500e6
:1032a000b61f2200970024001cf707000e0037000d
:1032b00088d1220049442500ba1f22009bfe2b0022
:1032c0000b0037006044b8000a0020000b00280003
:1032d0000700370088d1220049442500ba1f220088
:1032e0009bff2300020037000004be000205be0061
:1032f0000800be000a01be004f06be004f05be001a
:103300004f04be000080fa00000006001800fa001a
:103310000203be008702780005f0a10002027800d7
:10332000b61f220097fe2300860f5200878f5a0097
:1033300014003e00d6092a0067e42300860f5200dd
:10334000878f5a000c003e006022b8000600200063
:1033500007772400f7f60700c0b79f00d1b79f009a
:10336000e2b79f00f3b79f006000b80002002000a2
:1033700003ff2300420037006022b8006033b8002a
:103380001a003700f6ff2f00f7fe2700860f5200c5
:10339000878f5a00040036000002be000203be0000
:1033a000def607003600370070825700fd02070086
:1033b00063006000e10f50000e003200030039008e
:1033c000e20f500022003a00160037004fba970073
:1033d000dfba97006fbb9700ffbb97000fb897004d
:1033e0009fb897002fb99700bfb997003002070028
:1033f00023003700801f78003fba9700cfba9700ac
:103400005fbb9700efbb97007fb097008fb8970026
:103410001fb99700afb997007905070003f0a20024
:10342000160037004fba9700dfba97006fbb9700be
:10343000ffbb97000fb897009fb897002fb9970070
:10344000bfb997001a02070003f0a2000c00370072
:1034500010002000801f78003fba9700cfba970075
:103460005fbb9700efbb97007fb097008fb89700c6
:103470001fb99700afb99700610507008f87e90072
:103480000080fa0000000600f4ff2f00f5ff2f0077
:10349000f6ff2f00f7ff270004026000858260001e
:1034a00006036100878361000400be000601be00c0
:1034b000000006001800fa00889fbe008a9fbe0028
:1034c0000004be000205be008300780001f0a100e8
:1034d00002007800b21f220093fe2300820f5000ea
:1034e000838f580022003e00f2ff2f00f3e42300f8
:1034f000820f5000838f580017003e00f2ff2f000c
:10350000f3002000820f5000838f580007003e0018
:103510006022b80006002000078723000800be00d4
:103520000a01be007df70700060037006022b800e0
:1035300006002000077724000800be000a01be0034
:103540007cf6070080b79f0091b79f00a2b79f004d
:10355000b3b79f0052003700801feb006022b80015
:103560006033b8000800be000a01be00200037002a
:10357000f2ff2f00f3fe2700820f5000838f5800c8
:10358000060036000802be000a03be000800be00a6
:103590000a01be0061f60700230037007882570059
:1035a0000800be000a01be007e0207006300600042
:1035b000e10f50001300320003003900e20f500009
:1035c0002b003a001b00370010002000801f7800fd
:1035d0007fb297008fba97001fbb9700afbb9700d1
:1035e0003fb09700cfb097005fb19700efb1970061
:1035f000030507000004be000205be008f87e90036
:10360000270037000fba97009fba97002fbb97008b
:10361000bfbb97004fb09700dfb097006fb1970026
:10362000ffb19700a20107000004be000205be0022
:103630001b00370010002000801f78007fb2970029
:103640008fba97001fbb9700afbb97003fb09700a2
:10365000cfb097005fb19700efb19700e804070083
:103660000004be000205be000bf0a200e3ff37001d
:103670000fba97009fba97002fbb9700bfbb970068
:103680004fb09700dfb097006fb19700ffb1970080
:10369000870107000004be000205be000bf0a20077
:1036a0000800be000a01be004f05be004f04be0068
:1036b0000080fa00000006002800fa00889fbe0083
:1036c0008a9fbe008c9fbe000004be000205be00a3
:1036d0000800be000a01be00a0b79f00b1b79f005e
:1036e000c2b79f00d3b79f000203be0000002000b6
:1036f00001ff27008181630000017800800f5100e5
:10370000818f59000b003a000802be000a03be0078
:103710000800be000a01be0000f707000002be005c
:103720000203be000800be000a01be0001f6070049
:103730001a0037002fb19700bfb19700e00f530078
:10374000e08f5b0018003c008700780001f0a100ca
:10375000060078000200700083807000e00f5000c7
:10376000e08f58004b013200e00f5300e08f5b0008
:103770000d00320010022000d09688000802be0022
:103780000a03be000800be000a01be00e3f5070000
:103790000002be000203be0031f607000004be00b6
:1037a0000205be003b01370044b8de00cfb8de00a2
:1037b000e00f5000e08f58002e003a00080037005c
:1037c00075005000e0805800cb1bde00451cdd007a
:1037d0004b13de0006037400c511dd00020020005b
:1037e000e00f5300e08f5b00f5ff32006044b8004b
:1037f000040037000603430087834b006104440044
:10380000e0844c000a0020000b0120008782650044
:103810000a027800e00f5200e08f5a00f5ff3200f4
:1038200061004000e0804800080050008980580096
:1038300004022000080252000205be0004067800bf
:103840000c06e900030033008b05d1000a85d30084
:10385000fbff3700060375008783750008027800b8
:103860000402e900030033000201410083814900a2
:10387000fbff37000004be00f83fb1000980b10033
:10388000ef806300060078000140a0000808a30054
:103890000c0032000000400081804800060020003b
:1038a0000700280083826300060278004f2ade00aa
:1038b000050020000000420081804a000201410012
:1038c000838149008983d1000883d300e6a79f0044
:1038d000f7a79f00000040008180480008002000fa
:1038e0000900280083836400080378004f3bde0052
:1038f000070020000000430081804b0002014100ce
:10390000838149006a01200008002000090220008c
:103910006022b800a4b79f00b5b79f006022b8002e
:10392000eaaf9f000403440085834c00800f5300de
:10393000818f5b000a003c000602440087824c0035
:1039400006005000878058002fb39700bfb3970040
:103950000603440087834c00a6b79f00b7b79f00bb
:1039600000054000818548008ab79f009bb79f00f3
:103970000600200007002800838663000606780002
:103980004f68de00010020000a0040008b804800e4
:1039900002014100838149008904d1000884d300d9
:1039a000efad97008b05e900ebaf9f00ddff3a001c
:1039b0000c0220006055b800eaaf9f00fbaf9f00eb
:1039c000eab79f00fbb79f0086bf9f0097bf9f008d
:1039d0000fbb97009fbb97006fad9700ffad97009f
:1039e0000604450087844d00800f5200818f5a00e5
:1039f0000400350036003a00820f5400838f5c00cb
:103a000032003e000fbb97009fbb970008034300a6
:103a100089834b00e6af9f00f7af9f000d002800a1
:103a200089836600d7af9f000005eb00caaf9f00f7
:103a30004fab9700dfab97000a0020000b00280077
:103a40008a0f53008b8f5b000c003a00ffad97008c
:103a50008b856600bbaf9f00a6af9f002fab970082
:103a6000bfab9700e00f5300e08f5b0003003a000c
:103a700061054200e0854a00010037000405be00f0
:103a80000400500085805800880f5100898f59002c
:103a90000200310061005000e08058000801510030
:103aa000898159006fb49700ffb497000fba97004f
:103ab0009fba97000804420089844a00e8b79f0033
:103ac000f9b79f000a02be00010037000400be00e3
:103ad0000000400081804800080020000900280004
:103ae0000383640096af9f008803780087af9f0030
:103af0000fad97009fad97004f5cde0009002000de
:103b00000000440081804c00020141008381490093
:103b10000fbb97009fbb97008703d1000683d3009c
:103b200086bf9f0097bf9f000c06e900a8ff3a00e0
:103b30006fb59700ffb5970002007000838070009a
:103b4000e00f5000e08f58003700320094352f000e
:103b5000852f2c00f6e12600571a20006000b800df
:103b60000200200003ff2300ecf407006022b800ed
:103b70000600200007ff2300d6f307000000e00046
:103b800029003500e10f4500e08f4d0008003a00a4
:103b90002fb49700bfb4970061044400e0844c0048
:103ba000a8b79f00b9b79f006055b8001e00370046
:103bb00094352f00852f2c00f6e12600571a20009f
:103bc0006000b8000200200003ff2300d9f40700c2
:103bd0006022b8000600200007ff2300bdf30700a5
:103be0000000e0000c003400e20f4500e08f4d00c3
:103bf00006003a002fb09700bfb097006100400068
:103c0000e0804800a0b79f00b1b79f006205450063
:103c1000e0854d00040037006000b80061006500d9
:103c20000005450081854d002fb19700bfb1970079
:103c30008382d1000282d3008b01d1000a81d3009c
:103c40002fb397000608a3000100320003f0a00084
:103c50006fa49700ffa49700c440dd00000020007f
:103c60000600200007fe23000000430081804b0077
:103c70000004420081844a004fcdde008a057800ae
:103c80000805be006044b800080471008984710012
:103c90000a05be000800be000a01be004f06be00b5
:103ca0004f05be004f04be000080fa000000060071
:103cb0003000fa00889fbe008a9fbe000004be004c
:103cc0000205be00c8b79f00d9b79f00eab79f00a2
:103cd000fbb79f000400be000601be0080af9f003e
:103ce00091af9f00a2af9f00b3af9f000802be003c
:103cf0000a03be000800be000a01be0087f50700e7
:103d00000004be000205be000002be000203be00a9
:103d100082f507000002be000203be0084b79f00c8
:103d200095b79f00a6b79f00b7b79f006022b80065
:103d30000600200007fe23000800be000a01be00a6
:103d400076f507000002be000203be0084bf9f009c
:103d500095bf9f00a6bf9f00b7bf9f006000b8003f
:103d60000200200003ff23006cf407000002be00e5
:103d70000203be00c4af9f00d5af9f00e6af9f0017
:103d8000f7af9f006000b8000200200003ff23008f
:103d900062f407000fba97009fba97002fbb9700f5
:103da000bfbb97005df407000002be000203be0027
:103db00084bf9f0095bf9f00a6bf9f00b7bf9f0015
:103dc00004592100b59c2100061a2000a7ef23000a
:103dd0000800be000a01be0050f507007417250058
:103de000156c2100c6162c0067f523004bf4070064
:103df0000002be000203be000800be000a01be00b1
:103e000046f50700c4542500555525005655250094
:103e100057fa230047f407000002be000203be0069
:103e20000800be000a01be003cf507000002be000b
:103e30000203be00c4a79f00d5a79f00e6a79f006e
:103e4000f7a79f000fb297009fb297002fb397007c
:103e5000bfb397000400be000601be002ff50700a7
:103e60000002be000203be0084b79f0095b79f000a
:103e7000a6b79f00b7b79f00448d230085e82b00ad
:103e800096ae2f0087da2b000800be000a01be00a4
:103e900022f50700441c2b0045db2b00e6e92e0031
:103ea00017e2230023f407000002be000203be0055
:103eb0000800be000a01be0018f50700d42a25003c
:103ec000c5092800f6e4270027e9230013f40700ba
:103ed0000002be000203be000fb097009fb0970023
:103ee0002fb19700bfb197000cf507000002be008c
:103ef0000203be004fa09700dfa097006fa19700bc
:103f0000ffa197000bf407000002be000203be00f1
:103f10000800be000a01be0000f507000004be0054
:103f20000205be000faa97009faa97002fab97002b
:103f3000bfab97004fb09700dfb097006fb197000d
:103f4000ffb19700f5f407000002be000203be00b7
:103f50000800be000a01be00f0f307000002be0028
:103f60000203be000fb897009fb897002fb99700c3
:103f7000bfb99700eff307000002be000203be00c6
:103f80004fa89700dfa897006fa99700ffa9970097
:103f9000e8f307004f05be004f04be000080fa00a2
:103fa00000000600fc874700889fbe008a9fbe0075
:103fb0008c9fbe008e1f78000004be000205be006c
:103fc000840678000800be000a01be000203be009d
:103fd0000002be004f3ade0004067800830078003d
:103fe00001f0a100e1b79f00d2b79f00a0a7260073
:103ff000f10024005fb39700efb39700800f5300e8
:10400000818f5b0090003e00ef806300020078002b
:10401000b21f220093002000820f5000838f5800af
:1040200044013200c0972d0021002400800f53006e
:10403000818f5b0042003e000c00e00020003a004f
:104040000400200005442500b61f220097ff23002e
:104050000800be000a01be00b0f307000004be0065
:104060000205be001433260025a6210016462b00ab
:1040700007dd2300a9f307000002be000203be0013
:10408000849ebe008696be000800be000a01be00e7
:10409000a2f307001433260025a6210016462b00a4
:1040a00007dd23009df30700c0069800d1069800a5
:1040b000e2069800f30698001e002000490237002f
:1040c0000400200005442500b61f220097ff2300ae
:1040d0000800be000a01be0096f307000004be00ff
:1040e0000205be001433260025a6210016462b002b
:1040f00007dd23008ff307000002be000203be00ad
:10410000849ebe008696be000800be000a01be0066
:1041100082f307001433260025a6210016462b0043
:1041200007dd230083f30700c0069800d10698003e
:10413000e2069800f30698000087eb00290237009a
:104140000c00e00020003a00040020000544250097
:10415000b61f2200970024000800be000a01be001e
:104160006ef307000004be000205be0014332600f3
:1041700025a6210016462b0007de230067f3070063
:104180000002be000203be00849ebe008696be00f2
:104190000800be000a01be0060f3070014332600c9
:1041a00025a6210016462b0007de23005bf307003f
:1041b000c0069800d1069800e2069800f306980021
:1041c0002e002000070237000400200005442500cf
:1041d000b61f2200970024000800be000a01be009e
:1041e00054f307000004be000205be00143326008d
:1041f00025a6210016462b0007de23004df30700fd
:104200000002be000203be00849ebe008696be0071
:104210000800be000a01be0040f307001433260068
:1042200025a6210016462b0007de230041f30700d8
:10423000c0069800d1069800e2069800f3069800a0
:10424000eeff2f00e7013700b0632400c101240016
:104250005fb29700efb29700800f5200818f5a0033
:10426000ad003e00c0db2f0051012400800f520042
:10427000818f5a005f003e00c0972d00210124006d
:10428000800f5200818f5a00aa0032000c00e0001b
:104290002c003a000400200005f32700c6972d00eb
:1042a000270124000800be000a01be001bf307001e
:1042b0000004be000205be006022b8000600200017
:1042c000870024001033260021a6210012462b006f
:1042d00003dd230011f407000002be000203be004c
:1042e000d4b79f00e5b79f00f6b79f0087bf9f0038
:1042f0000800be000a01be0008f307000002be006d
:104300000203be00849ebe008696be000800be006a
:104310000a01be0001f307005fb29700efb29700f9
:104320007fb397008fbb9700fcf20700c006980090
:10433000d1069800e2069800f30698003e0020009f
:10434000a80137000400200005f32700c6972d00c0
:10435000270124000800be000a01be00f5f2070094
:104360000004be000205be006022b8000600200066
:10437000870024001033260021a6210012462b00be
:1043800003dd2300e5f307000002be000203be00c8
:10439000d4b79f00e5b79f00f6b79f0087bf9f0087
:1043a0000800be000a01be00e2f207000002be00e3
:1043b0000203be00849ebe008696be000800be00ba
:1043c0000a01be00d5f207005fb29700efb2970076
:1043d0007fb397008fbb9700d6f20700c006980006
:1043e000d1069800e2069800f3069800deff2f0041
:1043f0007c013700b01f2200910124005fb39700b9
:10440000efb39700800f5300818f5b0049003200ab
:104410000c00e00020003a000400200005442500c4
:10442000b61f2200970124000800be000a01be004a
:10443000baf207000004be000205be0014332600d5
:1044400025a6210016462b0007df2300b3f2070044
:104450000002be000203be00849ebe008696be001f
:104460000800be000a01be00acf2070014332600ab
:1044700025a6210016462b0007df2300a7f2070020
:10448000c0069800d1069800e2069800f30698004e
:104490004e00200053013700040020000544250091
:1044a000b61f2200970124000800be000a01be00ca
:1044b000a0f207000004be000205be00143326006f
:1044c00025a6210016462b0007df230099f20700de
:1044d0000002be000203be00849ebe008696be009f
:1044e0000800be000a01be008cf20700143326004b
:1044f00025a6210016462b0007df23008df20700ba
:10450000c0069800d1069800e2069800f3069800cd
:10451000ceff2f0033013700a01f2200911324008b
:104520005fb19700efb19700800f5100818f590064
:10453000e0003e0034882c0095dc260006f32500c0
:1045400047fe23000800be000a01be0073f3070007
:104550006022b800060020008733240075f20700af
:104560006022b80006002000873324006bf20700a9
:104570000002be000203be00d4af9f00e5af9f0063
:10458000f6af9f0087b79f0076f10700000778001d
:104590000400200005442500b61f220097ff2300d9
:1045a0005fa89700efa897007fa997008fb19700a9
:1045b0005af307000002be000203be000800be005e
:1045c0000a01be0055f207000004be000205be004d
:1045d0001433260025a6210016462b0007dd2300f4
:1045e0005fa89700efa897007fa997008fb1970069
:1045f0004af307000002be000203be0094b79f000a
:10460000a5b79f00b6b79f00c7b79f000800be00c0
:104610000a01be0041f207000002be000203be0014
:10462000849ebe008696be005fb19700efb19700f2
:104630004418de000100200080017800c3af9f0015
:10464000443ade00fc7f20000c026200048251002c
:10465000f00f5200880034000400200005a621005d
:1046600016462b0007dd23005fa89700efa89700f0
:104670007fa997008fb1970028f307000002be00c2
:104680000203be0094b79f00a5b79f00b6b79f0076
:10469000c7b79f000800be000a01be001ff2070056
:1046a0000002be000203be00d4b79f00e5b79f0022
:1046b000f6b79f0087bf9f000800be000a01be003a
:1046c00016f207001fb29700afb297003fb39700f2
:1046d000cfb3970011f207000004be000205be0030
:1046e0003407270035e02200a698210037ba2300be
:1046f0005fa89700efa897007fa997008fb1970058
:1047000006f307000802be000a03be0003f207001a
:104710000002be000203be0094b79f00a5b79f0031
:10472000b6b79f00c7b79f005fb09700efb0970084
:104730007fb197008fb99700f8f10700809ebe0007
:104740008296be004418de000c0060004fab97005c
:104750008000530010032000808f5000420034007e
:104760000400200005e02200a698210037ba2300ab
:104770005fa89700efa897007fa997008fb19700d7
:10478000e6f207000002be000203be0094b79f00dd
:10479000a5b79f00b6b79f00c7b79f005fb097004f
:1047a000efb097007fb197008fb99700dbf107005a
:1047b0000004be000205be000002be000203be00ef
:1047c0005fb09700efb097007fb197008fb9970067
:1047d000d2f107001fb29700afb297003fb3970026
:1047e000cfb39700cdf107000002be000203be0068
:1047f000d4b79f00e5b79f00f6b79f0087bf9f0023
:10480000149c240005522200a6392800b7972300e3
:104810005fa89700efa897007fa997008fb1970036
:10482000bef207005fb29700efb297007fb3970028
:104830008fbb9700b9f107000002be000203be0063
:1048400094b79f00a5b79f00b6b79f00c7b79f005a
:104850000800be000a01be00b0f10700809ebe0045
:104860008296be00040037005fb49700efb4970053
:104870007fb597008fbd97003d02be002d03be009f
:104880000800be000a01be00a4f107001fb2970095
:10489000afb297003fb39700cfb397009ff10700e7
:1048a000c0069800d1069800e2069800f30698002a
:1048b0004c003700f0ff2f00f1fe27005fb3970098
:1048c000efb39700800f5300818f5b000d0036001f
:1048d0000802be000a03be000800be000a01be00b6
:1048e0008ef10700c0069800d1069800e2069800f5
:1048f000f3069800809ebe008296be000007eb0083
:10490000380037000800be000a01be00defa0700ca
:104910000004be000205be0034882c0095dc260091
:1049200006f3250047fe23007cf207006022b80052
:104930000600200007fe23007ef107009116070005
:10494000d0b79f00e1b79f00f2b79f0083bf9f00e1
:1049500065f8070034882c0095dc260006f3250056
:1049600047fe2300bef107000002be000203be00a6
:104970000800be000a01be0068f10700809ebe006c
:104980008296be000d0078006022b8006033b80047
:10499000680040000498be000690be005fb7970014
:1049a0000c00e000090032006022b8000600200080
:1049b00007002800849ebe008696be000498be00b4
:1049c0000690be000e07ea00060037006022b8001d
:1049d0006033b800849ebe008696be000498be0078
:1049e0000690be000e0078004f0778004f06be000c
:1049f0004f05be004f04be00cf01b100000006000d
:104a00002800fa00889fbe008a9fbe000004be00f6
:104a10000205be0088bf9f0099bf9f00aabf9f00ec
:104a2000bbbf9f000400be000601be00c0af9f00d8
:104a3000d1af9f00e2af9f00f3af9f000802be001e
:104a40000a03be000800be000a01be0033f20700e0
:104a50000004be000205be00d4e72f00157b250030
:104a600036de210077ec23002cf20700541d2600cf
:104a7000159c2100061a2000a7f2230027f1070049
:104a80000002be000203be000800be000a01be0014
:104a900022f20700648a2f0005112100161121005f
:104aa00017f8230023f107000002be000203be0036
:104ab000c4b79f00d5b79f00e6b79f00f7b79f0028
:104ac0000802be000a03be000800be000a01be00c4
:104ad00012f207000002be000203be000800be0082
:104ae0000a01be000df207000002be000203be0074
:104af00084b79f0095b79f00a6b79f00b7b79f00e8
:104b0000c4572d00f5ac2500a6932d0057de2300d9
:104b10000800be000a01be0000f20700b4ce290062
:104b2000b5a22800665e2e00a7e52300fbf0070073
:104b30000002be000203be000fb097009fb09700b6
:104b40002fb19700bfb19700f4f107000002be003b
:104b50000203be004fb09700dfb097006fb197001f
:104b6000ffb19700f3f007000002be000203be0091
:104b700084b79f0095b79f00a6b79f00b7b79f0067
:104b80000fba97009fba97002fbb9700bfbb970043
:104b90000800be000a01be00e0f107000002be00ee
:104ba0000203be00c4b79f00d5b79f00e6b79f00c1
:104bb000f7b79f004fa097000000e0001b003a00ed
:104bc0000fb297009fb297002fb39700bfb3970023
:104bd0000800be000a01be00d0f107009454250071
:104be000555525005655250057fc2300cbf00700ee
:104bf0000002be000203be004fb09700dfb0970076
:104c00006fb19700ffb19700c4f107000002be002a
:104c10000203be000fb897009fb897002fb9970006
:104c2000bfb99700c3f007003f0037006022b8000b
:104c30000600200007fe23004fa89700dfa897007a
:104c40006fa99700ffa99700b4f107000002be000a
:104c50000203be0084af9f0095af9f00a6af9f00e8
:104c6000b7af9f000fb297009fb297002fb3970086
:104c7000bfb397004fb09700dfb097006fb19700b8
:104c8000ffb19700a5f107000002be000203be00bd
:104c90000fa897009fa897002fa99700bfa997007a
:104ca0009ef007000002be000203be000800be0026
:104cb0000a01be0099f107004faa9700dfaa9700ea
:104cc0006fab9700ffab970094f007000004be00a5
:104cd0000205be0094542500555525005655250063
:104ce00057fc2b004fb09700dfb097006fb19700d3
:104cf000ffb1970089f107000002be000203be0069
:104d00000800be000a01be0084f007000002be00d9
:104d10000203be000fb897009fb897002fb9970005
:104d2000bfb997007df007004f05be004f04be00dd
:104d30000080fa000000060000000600fa87470025
:104d4000889fbe008a9fbe008c9fbe008e1f780089
:104d50000004be000205be000200be004f19de00c6
:104d600003002000f2af9f0083b79f008106780008
:104d70000df0a1000a067800f0ff2f00f14024009a
:104d8000800f5600818f5e00230036000800be00b1
:104d90000a01be00e8ff0700f4ff2f00f5ff2f0017
:104da000f6ff2f00f7ff27000402600085826000f5
:104db00006036100878361006000b80002002000e4
:104dc00003ff27000020e10001a8e10002b0e1009c
:104dd00003b8e10068013e006022b8000600200030
:104de0000787230080d1220041442500b21f220002
:104df00093ff23004ff007000004be000205be0031
:104e00007faa97008fb29700e00f5200e08f5a0000
:104e100058013a0058013700f0ff2f00b1fd230080
:104e2000800f5600818f5e0011003e000087eb006e
:104e3000f0ff2f00f1e32300800f5600818f5e000a
:104e400083003e00f0ff2f00f1002000800f56008d
:104e5000818f5e0048013e000800be000a01be00ce
:104e600003f00700d0af9f00e1af9f004201370081
:104e70000800be000a01be0083f907000004be005e
:104e80000205be00f0ff2f0021ff2300800f560017
:104e9000818f5e0040003e00f0ff2f0051fe230096
:104ea000800f5600818f5e001f003e000802be008a
:104eb0000203be000800be001ef007006022b8001a
:104ec0000600200007ff230014f007000002be00c8
:104ed0000203be00d4b79f00e5b79f00f6b79f005e
:104ee00087bf9f006022b800060020000700240052
:104ef0000800be000a01be000ef007000002be005e
:104f00000203be005fb09700efb097007fb197003b
:104f10008fb9970052f007000004be000205be00e2
:104f20000007eb004a0037006022b80006002000ae
:104f300007ff23000800be00f8ef07000002be00d4
:104f40000203be00d4b79f00e5b79f00f6b79f00ed
:104f500087bf9f006022b8000600200007ff2300e3
:104f60000800be000a01be00f2ef07000002be000a
:104f70000203be005fb09700efb097007fb19700cb
:104f80008fb9970036f007000004be000205be008e
:104f90001e0020002e003700f0ff27003100240003
:104fa000800f5600818f5e0020003e006022b80016
:104fb0000600200087ff23000800be00d7ef07008f
:104fc0000002be000203be00d4b79f00e5b79f00f9
:104fd000f6b79f0087bf9f006022b8000600200040
:104fe00087ff23000800be000a01be00cbf00700c7
:104ff0006022b8000600200007ff2300cdef070065
:105000000002be000203be005fb09700efb0970041
:105010007fb197008fb9970011f007000004be0020
:105020000205be002e002000090037000802be0065
:105030000203be006000b8000200200003ff2b0046
:1050400007f007000004be000205be003e0020007d
:105050000802be000a03be000800be000a01be002e
:10506000aef007000002be000203be0094b79f002e
:10507000a5b79f00b6b79f00c7b79f00a7f007006e
:105080000002be000203be00d4b79f00e5b79f0038
:10509000f6b79f0087bf9f0014a12d0025322e0078
:1050a000a6d32a0007f923009cf00700b4de2000f5
:1050b00065472200b6b4270097fa23009def07004a
:1050c0000002be000203be005fb09700efb0970081
:1050d0007fb197008fb9970090f0070014d5230097
:1050e000050d2a0066d6200017fb230091ef07006c
:1050f0000002be000203be005fb09700efb0970051
:105100007fb197008fb9970084f00700e406220072
:10511000c5542c00d65c240077fb230085ef0700e4
:105120000002be000203be005fb09700efb0970020
:105130007fb197008fb9970078f00700f43f2800ff
:10514000052029004692240027fc230079ef070060
:105150000002be000203be005fb09700efb09700f0
:105160007fb197008fb997006cf00700d4502500ed
:10517000555525005655250057fd23006def0700b6
:105180000002be000203be001fb09700afb0970040
:105190003fb19700cfb1970060f007000002be005a
:1051a0000203be0094b79f00a5b79f00b6b79f004b
:1051b000c7b79f00f4c22600a5c6220046442b00b4
:1051c00027fa2b005fb09700efb097007fb19700f0
:1051d0008fb9970051f00700a4d92f00e52d2500c5
:1051e000d6e22d00d7fa23004cef07000002be00e4
:1051f0000203be005fb09700efb097007fb1970049
:105200008fb9970045f00700d4a6290045f72a007a
:10521000260f2b0037fb230040ef07000002be00e3
:105220000203be005fb09700efb097007fb1970018
:105230008fb9970039f007001467210035e22f007d
:10524000661c2700c7fb230034ef07000002be00e6
:105250000203be005fb09700efb097007fb19700e8
:105260008fb997002df0070044bc2e0085992900c6
:105270009699290097fc230028ef07000002be0042
:105280000203be005fb09700efb097007fb19700b8
:105290008fb9970021f007000002be000203be0094
:1052a000e10f470012003a001fb09700afb097001f
:1052b0003fb19700cfb197001eef07000002be007c
:1052c0000203be000800be000a01be0013f0070082
:1052d0000002be000203be000800be000a01be00bc
:1052e0000eef07000004be000205be0022003700da
:1052f0004376dd006d2321008c8646001fb09700a9
:10530000afb097003fb19700cfb1970009ef07000a
:105310000002be000203be000800be000a01be007b
:10532000feef0700642521000c0642003c02be008f
:105330002c03be00f9ee07000802be000a03be00ff
:10534000f6ee07000002be000203be003d00be00f4
:105350002d01be00f1ee07000004be000205be00f4
:105360007fab97008fb39700e00f5300e08f5b0097
:10537000010032000bf0a2000800be000a01be00ce
:105380004f0778004f06be004f05be004f04be0019
:10539000af01b100000006000000fa00688157006c
:1053a000cfb89700a08f8000100078009705070005
:1053b0000080fa0000000600df0007003801070047
:1053c0001204070046040700c2040700ea040700ad
:1053d000b905070021060700cc0537000000fa00d8
:1053e00068815700cfb89700a08f80001000780028
:1053f000860507000080fa0000000600ce000700c6
:105400002701070001040700b2040700da040700bf
:1054100033040700a805070010060700bb05370086
:105420000000fa0068815700cfb89700a08f800075
:1054300010007800750507000080fa0000000600e3
:10544000bd000700f1030700a2040700ca0407001b
:105450002304070001060700ac0537008000eb00bd
:10546000b100370080007800100020000202200008
:10547000828f500004003200e9805000e48f500019
:10548000010036000000eb0000000600889fbe000f
:105490008a1f7800000578000a0478009844780094
:1054a0000805e8000900fb00eeff07000000e0002f
:1054b000f9ff3a00b0c2b30080cf540005003200bb
:1054c000d0c2b3008000eb0080cf540005003a004a
:1054d000020037008000eb000100370011002000bf
:1054e0000804e8000000eb00030037006a02b9007e
:1054f000020052000003b0003801fb0003fd2f0042
:1055000082814100e98f5100f8ff36000100e00080
:1055100001003a000000ea004f0578004f04be0089
:105520000000060080007800100020000202200029
:10553000828f500004003200e9805000e48f500058
:10554000010036000000eb0000000600889fbe004e
:105550008a9fbe00000578008a047800194478000c
:105560000905e8000800fb00eeff07000000e0006e
:10557000f9ff3a00b0c2b300804f5400040032007b
:10558000d0c2b300804f540006003a00020037003a
:105590000004eb0001003700180020008904e80037
:1055a000010037000004eb006000b800060037007f
:1055b000a200200003002000bf130700cfd5de00ab
:1055c0000a0050008b8058003905fb000a03b10027
